:020000040800F2
:10000000FCFF0020511900004919000049190000A7
:100010004919000049190000491900004919000058
:100020004919000049190000491900004919000048
:100030004919000049190000491900004919000038
:100040004919000049190000491900004919000028
:100050004919000049190000491900004919000018
:100060004919000049190000491900004919000008
:1000700049190000491900004919000049190000F8
:1000800049190000491900004919000049190000E8
:1000900049190000491900004919000049190000D8
:1000A00049190000491900004919000049190000C8
:1000B00049190000491900004919000049190000B8
:1000C00049190000491900004919000049190000A8
:1000D0004919000049190000491900004919000098
:1000E0004919000049190000491900004919000088
:1000F0004919000049190000491900004919000078
:100100004919000049190000491900004919000067
:100110004919000049190000491900004919000057
:100120004919000049190000491900004919000047
:100130004919000049190000491900004919000037
:100140004919000049190000491900004919000027
:1001500081B00248006801B0704700BF1000002065
:1001600081B0194900EA0101084600220EE004208E
:1001700022E0082020E010201EE020201CE040208B
:100180001AE0802018E040F2001015E00F49884284
:10019000EDD00F498842ECD00E498842EBD00E4991
:1001A0008842EAD00D498842E9D00D498842E8D01A
:1001B0000C498842E7D010460B49096841EA000221
:1001C00009490A6001B0704700FCFFFF00080140C8
:1001D000000C0140001001400014014000180140D3
:1001E000001C0140002001401810024083B0CDF8EF
:1001F00000E000F0FF031A09104603F00F02134657
:1002000014E0194A02921FE0184A02921CE0184AB0
:10021000029219E0174A029216E0174A029213E07E
:10022000164A029210E0164A02920DE00028E8D029
:100230000128E9D00228EAD00328EBD00428ECD02A
:100240000528EDD00628EED0012212B29A40ADF872
:10025000042002980A46BDF8041000F023FBDDF8E4
:1002600000E003B0704700BF00080140000C0140EF
:10027000001001400014014000180140001C014022
:100280000020014082B0CDF800E0034619460191FC
:10029000FFF75EFF40F2E83100FB01F201990A60CE
:1002A0001F490978C1F30311C8B21E49091808781B
:1002B000C0B21A1D1968C140116019490988C1F3FB
:1002C000022188B2174909180878C0B203F208025F
:1002D000191D0968C140116011490988C1F3C22183
:1002E00088B2104909180878C0B203F20C02191D2F
:1002F0000968C14011600A490988C1F3813188B297
:10030000094909180978C8B203F2100203F20C0176
:100310000968B1FBF0F11160DDF800E002B0704750
:1003200004100240C41C00009C18000081B006B5F7
:100330004FEA40024FEA12627F3A44BF4FF000009A
:1003400011E0D2F11F0209D94FEA002141F000412A
:10035000D14000284CBF4842084604E000284FF036
:10036000004058BF401EBDE8064001B07047FFFF87
:1003700081B0CDF800E0012252B23E490A6000F29D
:1003800068010B686FF0006103EA0102144603F094
:100390000061C90E0B4602F00041B1F1004F02D1DD
:1003A00035490A6801E035490A6804F47021090CEE
:1003B0000E464FF6FF7104EA01010D4604F44011A8
:1003C000B1F5401F0DD16FF0706102EA01010E46D8
:1003D0002A490A686FF070610A4028490A6032466B
:1003E00016E004F48011B1F5801F09D14FF003012C
:1003F000B140C94302EA010141F070610A4607E0D9
:10040000610D090105FA01F1C9430A4042F0706229
:100410002BB1610D090105FA01F10A43FFE704F070
:100420000041B1F1004F02D113490A6001E01349C4
:100430000A6040F2000A81464FEA8A0109EB010195
:100440000968B1F1FF3F10D009F134014FEA8A0386
:10045000C91809680A4609EB0301096808461146EC
:10046000FFF7C4FE0AF1010AE6E7DDF800E001B09B
:10047000704700BF000342421C00014004000140DD
:1004800081B000230360CB009BB242EA03030468FF
:100490009BB244EA03030360051D13141C462B683A
:1004A00064F382032B6000F21C0500242B6864F3C4
:1004B000CB232B600124036864F38613036001B02F
:1004C0007047FFFF81B000F20C02116000F20802D9
:1004D0001368C3F3000202B9F8E700F20C021268D5
:1004E00090B201B07047FFFF89B0CDF800E08346BD
:1004F00098B28C46BDF824100A9E04ACADF80410E6
:10050000ADF808002046FFF7BDFEBDF80800BDF8B5
:100510000410644CA34512D101256DB2624C2560D4
:10052000624D634C2560634D634C2560634D644CA4
:100530002560644D644C2560079C039456E0634C31
:10054000A34512D101256DB2614C2560614D584C17
:100550002560614D584C2560604D594C2560604DBB
:10056000594C2560069C039440E05E4CA34512D193
:1005700001256DB25C4C25605C4D4D4C25605C4D99
:100580004D4C25605B4D4E4C25605B4D4E4C2560BF
:10059000069C03942AE0594CA34512D101256DB263
:1005A000574C2560574D424C2560574D424C2560B5
:1005B000564D434C2560564D434C2560069C039494
:1005C00014E0544CA34511D101256DB2524C256065
:1005D000524D374C2560524D374C2560514D384CAB
:1005E0002560514D384C2560069C0394ADF80410ED
:1005F000ADF808003046FFF7BBFEBDF80800BDF8B7
:1006000004100BF1100500242C600BF110052C6870
:100610000C432C600BF10C0500242C6018B140F445
:10062000806080B2FFE70BF10C052C6804432C605E
:100630000BF10C060125346865F34D3434600BF181
:100640000C060125346865F3C30434600BF10C0615
:100650000125346865F3820434600BF1140500242D
:100660002C60039D192465434FEA8C04B5FBF4F715
:100670006424B7FBF4F42601350964246C433C1B65
:10068000240104F232056424B5FBF4F404F00F04F1
:1006900046EA04040BF10805A4B22C60DDF800E082
:1006A00009B070470038014038034242FFFFFFFFA6
:1006B0001C0000208916000008000020A116000080
:1006C00000000020B9160000200000200044004077
:1006D000C4034242FFFFFFFF01160000191600008D
:1006E0003116000000480040C8034242FFFFFFFFF0
:1006F000D11600004917000031170000004C0040DF
:10070000CC034242FFFFFFFF61170000E916000023
:100710000117000000500040D0034242FFFFFFFFDE
:1007200019170000E91500007514000081B0FAB532
:1007300090EA02064CBF4FF000464FF000064FEA29
:1007400000214FEA40031B0E12BF41F000414FF061
:1007500000002CE0FF2B26D04FEA02244FEA42058E
:100760002D0E12BF44F000444FF000001FE0FF2D9B
:1007700019D05B19A1FB0454002C5CBF64005B1E04
:10078000803424BF5B1C64087E3BDCBF4FF000005C
:100790000DE0FF2B07D24FEA142030F4000040EAAE
:1007A000C350304303E0FF27FF0546EA0700BDE8DA
:1007B000FA4001B07047FFFF81B0FAB590EA020637
:1007C0004CBF4FF000464FF00006010243001B0EE5
:1007D00012BF41F000414FF000003BE0FF2B35D04D
:1007E0005FEA02245FEA42055FEA156511BF44F043
:1007F00000444FF0FF4030432CE0FF2D26D05B1B20
:100800000020202764084908A14240EB000028BFCF
:10081000091B7F1E04D0002918BF4900F4D1B8403D
:1008200010F0004F04BF4000B3F1010380302CBF33
:100830005B1C40007F33DCBF4FF000000AE0FF2B61
:1008400004D2400A40EAC350304303E0FF27FF05CB
:1008500056EA0700BDE8FA4001B0704781B0CDF814
:1008600000E002B5002802D5FFF760FD13E04FEA73
:1008700040014FEA11617F393CBF4FF000000AE0B0
:10088000D1F11F0105D34FEA002040F00040C840DD
:1008900001E00020401EBDE80240DDF800E001B0AC
:1008A0007047FFFF81B0CDF800E08CB21546774B62
:1008B00000EA03031E461846FFF752FCB4F1FF0F8F
:1008C0000CD1734B9D4203D14FF033333360D9E0E9
:1008D000422D03D14FF044333360D3E04FF6FF7322
:1008E0009C4214D16A4B9D4207D14FF033333360A1
:1008F000341D4FF033332360C4E0422D07D14FF055
:1009000044333360341D4FF044332360BAE0002198
:10091000002005F001030BB100211DE005F00203EA
:1009200033B105F4C0730BB1082100E0042113E0DA
:1009300005F0040333B105F020030BB1042100E0FE
:10094000002109E005F0080333B105F020030BB1E5
:100950000C2100E00821FFE74E4B05EA03030BB131
:10096000032009E005F400730BB1022004E005F454
:1009700080630BB10120FFE705F00C030BB10143CD
:10098000FFE704F0FF039BB2002B3BD03768002049
:100990001FFA84F832462E4608282CD24FF0010365
:1009A00003FA00F408EA0403A34222D185004FF0C1
:1009B0000F03AB40DB4307EA030401FA05F344EA03
:1009C00003031D4606F48173B3F5817F05D102F25E
:1009D00014044FF001038340236006F08203822B4E
:1009E00005D102F210044FF00103834023602F462B
:1009F000FFE7401CD0E717601FFA88F00F4631462A
:100A0000164602E00F462946A0B2B0F1FF0F39D9D1
:100A1000331DD3F800800022082A30D202F20804E5
:100A20004FF0010303FA04F400EA0403A34224D1C3
:100A300095004FF00F03AB40DB4308EA030807FAC9
:100A400005F348EA030801F48173B3F5817F07D108
:100A500006F2140502F208044FF00103A3402B60D4
:100A600001F08203822B07D106F2100502F208047E
:100A70004FF00103A3402B60FFE7521CCCE7331D6E
:100A8000C3F80080DDF800E001B0704700FCFFFF14
:100A9000140008000008080081B0CDF800E04FF015
:100AA000420289B2FFF7FEFEDDF800E001B07047B8
:100AB00081B0CDF800E0019D2C4610B408B493B28B
:100AC0008AB201460348FFF70FFD02B0DDF800E0EF
:100AD00001B070470048004081B0CDF800E0019DB2
:100AE0002C4610B408B493B28AB201460348FFF70B
:100AF000FBFC02B0DDF800E001B0704700380140B7
:100B000081B0CDF800E0019D2C4610B408B493B23A
:100B10008AB201460348FFF7E7FC02B0DDF800E0C7
:100B200001B070470044004081B0CDF800E081B2D0
:100B30000348FFF7C7FCDDF800E001B0704700BFD5
:100B40000030014081B0CDF800E081B20348FFF7EA
:100B5000B9FCDDF800E001B0704700BF003800408C
:100B600083B0CDF800E08DF8040002910B4C0C4BE3
:100B70001C600C4C0C4B1C60012464B20B4B1C60C1
:100B80001046FFF7F5FB029A9DF804100848FFF79E
:100B900077FCDDF800E003B0704700BFA90C00004F
:100BA00014000020FFFFFFFF18000020BC0342429A
:100BB000003C004081B0CDF800E0044A89B2FFF764
:100BC00071FEDDF800E001B0704700BF14000800BE
:100BD00083B0CDF800E001464FF09B400A46FFF796
:100BE000A5FD1B4AFFF7E8FDFFF738FE044601AB01
:100BF000010A41F0400141F07F01C9B219705A1C4D
:100C000004F0FF01C9B211709A1CA10D41F040011E
:100C100041F07F01C9B21170DA1CA10B01F0FF0194
:100C2000C9B2117000200B4C2468A04700F0C0F836
:100C300001A904220846084900F094F800F0B8F829
:100C40000120044C2468A047DDF800E003B07047A1
:100C500020BCBE4B300000203800002083B0CDF80F
:100C600000E0ADF8040000200D4C2468A047BDF85A
:100C7000040000F09DF802AB010AC9B219705A1CB9
:100C8000C1B2117002220749184600F06BF801202A
:100C9000034C2468A047DDF800E003B0704700BFB4
:100CA000300000203800002081B0CDF800E081B293
:100CB0000348FFF707FCDDF800E001B0704700BF14
:100CC000003C004081B00249086001B0704700BF9D
:100CD0009881224281B00249086001B0704700BF8C
:100CE000B081224281B00249086001B0704700BF64
:100CF0009C81214281B00249086001B0704700BF69
:100D00009881214281B00249086001B0704700BF5C
:100D10009481224281B00249086001B0704700BF4F
:100D2000A801224281B00249086001B0704700BFAB
:100D3000AC01224281B00249086001B0704700BF97
:100D4000B881224281B00249086001B0704700BFFB
:100D5000B081224281B00249086001B0704700BFF3
:100D6000B001224284B0CDF800E0ADF80C20019033
:100D70000291BDF80C40BDF80C305B1EADF80C3094
:100D80007CB1019B1B78DCB2A0B2084C2468A04760
:100D9000029B1870029B5B1C0293019B5B1C0193DE
:100DA000E7E7DDF800E004B0704700BF280000204E
:100DB00081B042F6DF67C0F200077F1EFDD100BFA1
:100DC00000BF00BF00BF00BF01B0704781B0CDF8C9
:100DD00000E042F2280205490A8042F2280188B266
:100DE000FFF73CFFDDF800E001B07047060000208F
:100DF00081B0CDF800E042F20010FFF72FFF42F281
:100E00000000FFF72BFF0348FFF7E2FEDDF800E0EC
:100E100001B07047A057EE4A81B0CDF800E042F231
:100E2000020205490A8042F2020188B2FFF716FF6A
:100E3000DDF800E001B070470600002081B000F24C
:100E400008010A6806490A60011D0A6805490A6026
:100E500000F218010A6804490A6001B0704700BF37
:100E60002C000020300000203400002081B00268F7
:100E700003490A60011D0A6802490A6001B070470F
:100E8000240000202800002081B00268C2F3401135
:100E900001B9FAE7011D096888B201B07047FFFF88
:100EA00081B00168C1F3801001B0704781B0016862
:100EB000C1F3401001B0704781B0CDF800E0A9E067
:100EC000012905D140F220016548FFF7E5FD04E066
:100ED00040F220016248FFF76DFEBBE0012905D119
:100EE00040F208015F48FFF7D7FD04E040F2080137
:100EF0005C48FFF75FFEADE0012905D144F2000137
:100F00005948FFF7C9FD04E044F200015648FFF7D5
:100F100051FE9FE0012905D140F200415148FFF701
:100F2000BBFD04E040F200414E48FFF743FE91E074
:100F3000012905D140F600014A48FFF7ADFD04E064
:100F400040F600014748FFF735FE83E0012905D14F
:100F500041F200014348FFF79FFD04E041F2000128
:100F60004048FFF727FE75E0012905D141F2000155
:100F70003D48FFF791FD04E041F200013A48FFF7D8
:100F800019FE67E0012905D140F600013648FFF758
:100F900083FD04E040F600013348FFF70BFE59E003
:100FA000012905D140F240012F48FFF775FD04E00B
:100FB00040F240012C48FFF7FDFD4BE0012905D12F
:100FC00040F220012848FFF767FD04E040F22001CD
:100FD0002548FFF7EFFD3DE0012905D140F2400132
:100FE0002248FFF759FD04E040F240011F48FFF797
:100FF000E1FD2FE0012905D140F280011B48FFF7F8
:101000004BFD04E040F280011848FFF7D3FD21E0DA
:10101000012020E000283FF453AF01283FF45EAFE9
:1010200002283FF469AF03283FF474AF04283FF46B
:101030007FAF05283FF48AAF06283FF495AF072815
:10104000A0D00828ACD00928B8D00A28C4D00B28D2
:10105000D0D0DDE70020DDF800E001B0704700BF30
:10106000000801400010014000140140000C014044
:1010700081B00249086001B0704700BF9001214271
:1010800081B00249086001B0704700BF8801224268
:1010900081B00249086001B0704700BFB4812242AC
:1010A00081B0CDF800E0A9E0012905D140F210019E
:1010B0006548FFF7F1FC04E040F210016248FFF7D9
:1010C00079FDBBE0012905D140F204015F48FFF73B
:1010D000E3FC04E040F204015C48FFF76BFDADE087
:1010E000012905D142F200015948FFF7D5FC04E07F
:1010F00042F200015648FFF75DFD9FE0012905D14E
:1011000040F200415148FFF7C7FC04E040F20041C3
:101110004E48FFF74FFD91E0012905D140F600014F
:101120004A48FFF7B9FC04E040F600014748FFF7E2
:1011300041FD83E0012905D141F200014348FFF759
:10114000ABFC04E041F200014048FFF733FD75E0DD
:10115000012905D140F201013B48FFF79DFC04E065
:1011600040F201013848FFF725FD67E0012905D16C
:1011700040F200413648FFF78FFC04E040F20041A6
:101180003348FFF717FD59E0012905D140F200214E
:101190002F48FFF781FC04E040F200212C48FFF7C4
:1011A00009FD4BE0012905D140F200112848FFF765
:1011B00073FC04E040F200112548FFF7FBFC3DE022
:1011C000012905D140F240012248FFF765FC04E007
:1011D00040F240011F48FFF7EDFC2FE0012905D147
:1011E00040F280011B48FFF757FC04E040F2800109
:1011F0001848FFF7DFFC21E0012020E000283FF441
:1012000053AF01283FF45EAF02283FF469AF0328D3
:101210003FF474AF04283FF47FAF05283FF48AAF52
:1012200006283FF495AF0728A0D00828ACD009289D
:10123000B8D00A28C4D00B28D0D0DDE70020DDF8D4
:1012400000E001B0704700BF0008014000100140FD
:1012500000140140000C014081B0CDF800E0011DF8
:101260000A680168C8B21146034AFFF779FC0020FA
:10127000DDF800E001B07047F81B000081B0CDF848
:1012800000E0094902B440F2000340F2000240F2DB
:101290000001FFF721FC01B0044A05490A60002063
:1012A000DDF800E001B070478C1B0000FFFFFFFF7E
:1012B0000C00002081B0CDF800E0094902B440F2F2
:1012C000000340F2000240F20001FFF719FC01B0F8
:1012D000044A05490A600020DDF800E001B07047CB
:1012E000201B0000FFFFFFFF0C00002081B0CDF8A5
:1012F00000E0094902B440F2000340F2000240F26B
:101300000001FFF7FDFB01B0044A05490A60002017
:10131000DDF800E001B07047201B0000FFFFFFFF79
:101320000C00002081B0CDF800E0011D0A680168C2
:10133000C8B21146034AFFF713FC0020DDF800E0B5
:1013400001B07047F81B000081B0CDF800E00949FA
:1013500002B440F2000340F2000240F20001FFF745
:10136000A7FB01B0044A05490A600020DDF800E04F
:1013700001B07047B41A0000FFFFFFFF0C0000200F
:1013800081B00249086001B0704700BF98812142D6
:1013900081B00249086001B0704700BFA0812242BD
:1013A00081B00249086001B0704700BFA4812242A9
:1013B00081B00249086001B0704700BF8C01224231
:1013C00081B00249086001B0704700BF940121421A
:1013D00081B00249086001B0704700BF9C81214282
:1013E00081B00249086001B0704700BFB0012242DD
:1013F00081B00249086001B0704700BFA8012242D5
:1014000081B00249086001B0704700BF80012142ED
:1014100081B00249086001B0704700BFAC012242B0
:1014200081B00249086001B0704700BFA881224224
:1014300081B0CDF800E05FFA81F95FFA82FA0FE03F
:101440005FFA8AF15FFA89F0FFF72AFE0DE05FFA92
:101450008AF15FFA89F0FFF72FFD06E0012004E032
:101460000028EDD00128F2D0F8E7DDF800E001B067
:101470007047FFFF81B0CDF800E00348FFF710FD93
:10148000DDF800E001B070470050004082B0CDF8B8
:1014900000E001A90720087000200A4C2468A0473A
:1014A000FFF786FC0DF1060101A80122FFF75AFCA7
:1014B000FFF77EFC0120034C2468A047DDF800E024
:1014C00002B070472C00002081B0CDF800E07328F6
:1014D00040F2000200D10122742840F2000100D144
:1014E00001210A43712840F2000100D1012142EAA2
:1014F000010109B10E4908700D490978732903D11A
:101500004FF07E50FFF774FC09490978742903D124
:101510004FF07E50FFF780FC05490978712903D10F
:101520004FF07E50FFF752FCDDF800E001B070474D
:101530000500002081B0CDF800E08B4609E0584658
:10154000FFF78AFE0AE05846FFF7ECFE06E00120AE
:1015500004E00028F3D00128F5D0F8E7DDF800E03A
:1015600001B0704781B0CDF800E011E00846FFF708
:10157000EBFE16E00846FFF7B9FE12E00846FFF75B
:101580007DFE0EE00846FFF795FE0AE0012008E028
:101590000028EBD00128EDD02028EFD03028F1D062
:1015A000F4E7DDF800E001B07047FFFF82B0CDF84E
:1015B00000E001A91F20087000200A4C2468A04701
:1015C000FFF7F6FB0DF1060101A80122FFF7CAFBA8
:1015D000FFF7EEFB0120034C2468A047DDF800E094
:1015E00002B070472C00002081B0CDF800E0034825
:1015F000FFF75CFCDDF800E001B0704700500040F0
:1016000081B0CDF800E00348FFF73EFCDDF800E0D4
:1016100001B070470044004081B0CDF800E00348BD
:10162000FFF744FCDDF800E001B0704700440040E3
:1016300081B0CDF800E00348FFF732FCDDF800E0B0
:1016400001B070470044004081B0CDF800E003468F
:101650000846FFF70BFC1846FFF7F0FB0120074C8C
:101660002468A0470120064C2468A0470120054CAF
:101670002468A047DDF800E001B070472C0000208E
:10168000300000203400002081B0CDF800E0034895
:10169000FFF7FAFBDDF800E001B0704700380140C9
:1016A00081B0CDF800E00348FFF700FCDDF800E072
:1016B00001B070470038014081B0CDF800E0034828
:1016C000FFF7EEFBDDF800E001B0704700380140A5
:1016D00081B0CDF800E00348FFF7D6FBDDF800E06D
:1016E00001B070470048004081B0CDF800E00348E9
:1016F000FFF7DCFBDDF800E001B07047004C004074
:1017000081B0CDF800E00348FFF7CAFBDDF800E048
:1017100001B07047004C004081B0CDF800E00348B4
:10172000FFF7B2FBDDF800E001B070470050004069
:1017300081B0CDF800E00348FFF7B2FBDDF800E030
:1017400001B070470048004081B0CDF800E0034888
:10175000FFF7ACFBDDF800E001B070470048004047
:1017600081B0CDF800E00348FFF78EFBDDF800E024
:1017700001B07047004C004081B04FF000094FF0BD
:10178000000CBDEB0A0F04DCBDEB0B0F01DBD446F4
:10179000EA464BF8049BBBEB0A0FFAD1BCEB0A0FED
:1017A00005DDE246D9F800B00BF1040BF1E701B01A
:1017B0007047FFFF81B01CF8019B0BF8019BBBEB4E
:1017C0000A0FF8D101B0704781B01548006840F0A9
:1017D0000101134801601349134801601048016872
:1017E000124801400E4801600D4801686FF48020E6
:1017F00001400B4801600C4801686FF4FE00014095
:1018000009480160064801686FF0A0500140044893
:1018100001604FF000010648016001B0704700BF51
:10182000001002400000FFF004100240FFFFF6FE2F
:101830002C10024081B0CDF800E0154C2468A04780
:1018400020B1144C2468A04713490870124800784E
:101850002B2804D1002110480170FFF717FE0E4815
:1018600000782D2804D100210B480170FFF79EFE5F
:1018700009480078002803D907480078FFF724FEBC
:10188000002105480170DDF800E001B0704700BF9D
:1018900000000020080000200400002002040608C8
:1018A00081B0CDF800E009490948FFF7CDFE44F6C4
:1018B0007F77C0F2120700BF00BF7F1EFDD100BFBF
:1018C00000BF00BFDDF800E001B07047DC1C000085
:1018D000641C0000FFFFFFFF81B0CDF800E0002294
:1018E00006210020FFF7A4FD002202210020FFF7BF
:1018F0009FFD002201210020FFF79AFD0C480146C0
:101900000020FFF717FE42F280512020FFF72AFE49
:1019100044F67F77C0F212077F1EFDD100BF00BFE3
:1019200000BF00BF00BFDDF800E001B0704700BF9E
:10193000D41C000081B002490248016001B0704728
:10194000401901001000002081B0FEE701B070478F
:1019500081B000F00DF800F0C5F9FFF7EBFFFFF7DD
:10196000BBFFFFF79DFFFFF765FFFCE7FEE7FFFF0B
:1019700081B0CDF800E0464A464B474C47494BF60C
:101980008030814206D94648006840F00201444850
:10199000016011E045F6C050814206D94048006818
:1019A00040F001013E48016006E03D4801686FF0EB
:1019B000070001403A480160FFF706FF394803601D
:1019C00039480460394802EA00013948016002F0F0
:1019D000010040B119463648006800F002000028B6
:1019E00000D1F8E700E0194602F4803040B10B4620
:1019F0002F48006800F40030002800D1F8E700E02C
:101A00000B4602F0805068B12948006840F08051D0
:101A1000274801602648006800F00050002800D1E7
:101A2000F8E7FFE702F0806078B12148006840F0F5
:101A300080611F48016011461A461D48006800F089
:101A40000060002800D1F8E701E011461A4601F0D5
:101A5000807070B11648006840F0807114480160D1
:101A600011461348006800F0007000B9F9E70A4613
:101A7000FFE70C48006800F00C01900000F00C003B
:101A8000814200D0F5E7DDF800E001B0704700BF0B
:101A90008100010502841D00440601004019010077
:101AA00000200240041002402C100240FFFF0F00F3
:101AB000001002403800000039000000FFFFFFFF67
:101AC0000000000000000000000000000000000016
:101AD0000000000000000000000000000000000006
:101AE00000000000000000001808000018000000BE
:101AF00000000000000000000000000000000000E6
:101B000000000000000000000000000000000000D5
:101B10000000000000000000000000003000140879
:101B20003500000036000000FFFFFFFF000000004E
:101B300000000000000000000000000000000000A5
:101B40000000000000000000000000000000000095
:101B5000000000001808000018000000000000004D
:101B60000000000000000000000000000000000075
:101B70000000000000000000000000000000000065
:101B8000000000000000000008000008090000003C
:101B90000A000000FFFFFFFF00000000000000003F
:101BA0000000000000000000000000000000000035
:101BB0000000000000000000000000000000000025
:101BC00018080000180000000000000000000000DD
:101BD0000000000000000000000000000000000005
:101BE00000000000000000000000000000000000F5
:101BF00000000000040000002A0000002B0000008C
:101C00002C000000FFFFFFFF0000000000000000AC
:101C100000000000000000000000000000000000C4
:101C20000000000000000000000000001808000094
:101C30001808000018080000000000000000000064
:101C40000000000000000000000000000000000094
:101C50000000000000000000000000000000000084
:101C60000011200871100000811000009110000088
:101C7000F113000011140000E11300000114000032
:101C800021140000A1130000911300008113000033
:101C9000D1130000FFFFFFFFFFFFFFFFFFFFFFFF6C
:101CA000FFFFFFFFFFFFFFFFFFFFFFFFFFFFFFFF44
:101CB000FFFFFFFFFFFFFFFFFFFFFFFFFFFFFFFF34
:101CC000FFFFFFFF00000000010203040102030404
:101CD000060708090700000006030000FFFFFFFFDA
:101CE000A90C000000B5DFF810B0DFF810A0FFF776
:101CF00043FD00BD704700BF0000002040000020F1
:00000001FF
