:10000000FCFF02200D250000C5240000C5240000CF
:10001000C5240000C5240000C5240000C52400003C
:10002000C5240000C5240000C5240000C52400002C
:10003000C5240000C5240000C5240000C52400001C
:10004000C5240000C5240000C5240000C52400000C
:10005000C5240000C5240000C5240000C5240000FC
:10006000C5240000C5240000C5240000C5240000EC
:10007000C5240000C5240000C5240000C5240000DC
:10008000C5240000C5240000C5240000C5240000CC
:10009000C5240000C5240000C5240000C5240000BC
:1000A000C5240000C5240000C5240000C5240000AC
:1000B000C5240000C5240000C5240000C52400009C
:1000C000C5240000C5240000C5240000C52400008C
:1000D000C5240000C5240000C5240000C52400007C
:1000E000C5240000C5240000C5240000C52400006C
:1000F000C5240000C5240000C5240000C52400005C
:10010000C5240000C5240000C5240000C52400004B
:10011000C5240000C5240000C5240000C52400003B
:10012000C5240000C5240000C5240000C52400002B
:10013000C5240000C5240000C5240000C52400001B
:10014000C5240000C5240000C5240000C52400000B
:10015000C5240000C5240000C5240000C5240000FB
:10016000C5240000C5240000C5240000C5240000EB
:10017000C5240000C5240000C5240000C5240000DB
:10018000C5240000C5240000C5240000C5240000CB
:08019000C5240000C524000095
:10250C0000F010F8FFF7DCFF00F094FCFFF7EEFF93
:10251C0000F050FCFFF74AFFFFF776FFFFF7B2FE23
:04252C00FCE7FEE7E3
:1024740081B01CF8019B0BF8019BBBEB0A0FF8D150
:0424840001B07047EC
:1024880081B04FF000094FF0000CBDEB0A0F04DCDF
:10249800BDEB0B0F01DBD446EA464BF8049BBBEBC4
:1024A8000A0FFAD1BCEB0A0F05DDE246D9F800B0F5
:0A24B8000BF1040BF1E701B07047CF
:1023B80081B0CDF800E0002206210020FFF700FFE1
:1023C800002202210020FFF7FBFE0022012100204D
:1023D800FFF7F6FE0C4801460020FFF7F5FD4EF228
:1023E80000110120FFF7CCFD40F6FE07C0F23D07C3
:1023F80000BF00BF7F1EFDD100BF00BF00BFDDF8DA
:0C24080000E001B0704700BFB82D0000DC
:1021C80081B0CDF800E05FFA81F85FFA82F91DE08E
:1021D8005FFA89F15FFA88F0FFF786FB1FE05FFA84
:1021E80089F15FFA88F0FFF763FC18E05FFA89F17C
:1021F8005FFA88F0FFF7A2FA11E05FFA89F15FFA57
:1022080088F0FFF7B3F90AE0012008E00028DFD0E2
:102218000128E4D00228E9D00328EED0F4E7DDF85D
:0622280000E001B0704768
:1018F00081B0CDF800E0A9E0012905D14FF0040145
:101900006548FFF773FC04E04FF004016348FFF7FC
:1019100043FCBBE0012905D14FF400615E48FFF7AD
:1019200065FC04E04FF400615C48FFF735FCADE076
:10193000012905D14FF010015948FFF757FC04E089
:101940004FF010015748FFF727FC9FE0012905D110
:101950004FF020015248FFF749FC04E04FF020010E
:101960005048FFF719FC91E0012905D14FF08001A3
:101970004B48FFF73BFC04E04FF080014948FFF77C
:101980000BFC83E0012905D14FF040014448FFF7EB
:101990002DFC04E04FF040014248FFF7FDFB75E0ED
:1019A000012905D14FF480613F48FFF71FFC04E097
:1019B0004FF480613D48FFF7EFFB67E0012905D157
:1019C0004FF400513448FFF711FC04E04FF400518C
:1019D0003248FFF7E1FB59E0012905D14FF004013E
:1019E0003348FFF703FC04E04FF004013148FFF7F0
:1019F000D3FB4BE0012905D14FF008012C48FFF73C
:101A0000F5FB04E04FF008012A48FFF7C5FB3DE075
:101A1000012905D14FF480712548FFF7E7FB04E069
:101A20004FF480712348FFF7B7FB2FE0012905D160
:101A30004FF400711E48FFF7D9FB04E04FF400712A
:101A40001C48FFF7A9FB21E0012020E000283FF41B
:101A500053AF01283FF45EAF02283FF469AF03287B
:101A60003FF474AF04283FF47FAF05283FF48AAFFA
:101A700006283FF495AF0728A0D00828ACD0092845
:101A8000B8D00A28C4D00B28D0D0DDE70020DDF87C
:101A900000E001B0704700BF50F00F4040F00F4031
:101AA00090F00F4080F00F4010F00F4000F00F401A
:081AB000D0F00F40C0F00F4020
:1011EC0081B0CDF800E0034AFFF794FDDDF800E094
:0811FC0001B07047040102007C
:100D200081B0CDF800E0FFF789FEDDF800E001B00A
:020D300070470A
:100A3C0083B0CDF800E006460C4615463046FFF76D
:100A4C00EFFD40F2FF1306EA030080090026224660
:100A5C002946202E39D24FF0010303FA06F402EA9C
:100A6C0004031F46A3422ED104031A4B1C19B300D6
:100A7C00E51801952C68184B04EA03032B60174BFF
:100A8C0001EA0304019B1B6843EA0404019B1C60FC
:100A9C0001F48033B3F5803F15D08401104B1B1942
:100AAC001433029301F400333BB1FC43029B1B68EB
:100ABC0003EA0404029B1C6005E0029B1B6843EAEA
:100ACC000704029B1C60761CC3E7DDF800E003B052
:100ADC00704700BF009004400000FFFFFFFF0000C4
:040AEC0000F00F40C7
:10062C0081B040F2FF1100EA01018909084600F28D
:10063C0009024FF0010101FA02F20449096841EA8A
:10064C00020202490A6001B0704700BF38800440C2
:1011980081B0CDF800E0034AFFF7BEFDDDF800E0BE
:0811A80001B0704704010400CE
:101AB80081B0CDF800E0A9E0012905D14FF0080177
:101AC8006548FFF78FFB04E04FF008016348FFF714
:101AD8005FFBBBE0012905D14FF400215E48FFF709
:101AE80081FB04E04FF400215C48FFF751FBADE0B7
:101AF800012905D14FF010015948FFF773FB04E0A5
:101B08004FF010015748FFF743FB9FE0012905D12B
:101B18004FF020015248FFF765FB04E04FF0200129
:101B28005048FFF735FB91E0012905D14FF08001BE
:101B38004B48FFF757FB04E04FF080014948FFF797
:101B480027FB83E0012905D14FF040014448FFF706
:101B580049FB04E04FF040014248FFF719FB75E0EC
:101B6800012905D14FF004013F48FFF73BFB04E092
:101B78004FF004013D48FFF70BFB67E0012905D151
:101B88004FF480713448FFF72DFB04E04FF4807167
:101B98003248FFF7FDFA59E0012905D14FF48031A9
:101BA8003148FFF71FFB04E04FF480312F48FFF75F
:101BB800EFFA4BE0012905D14FF400312A48FFF72D
:101BC80011FB04E04FF400312848FFF7E1FA3DE04B
:101BD800012905D14FF480612348FFF703FB04E096
:101BE8004FF480612148FFF7D3FA2FE0012905D18E
:101BF8004FF400611C48FFF7F5FA04E04FF4006168
:101C08001A48FFF7C5FA21E0012020E000283FF438
:101C180053AF01283FF45EAF02283FF469AF0328B1
:101C28003FF474AF04283FF47FAF05283FF48AAF30
:101C380006283FF495AF0728A0D00828ACD009287B
:101C4800B8D00A28C4D00B28D0D0DDE70020DDF8B2
:101C580000E001B0704700BF50F00F4040F00F4067
:101C6800D0F00F40C0F00F4090F00F4080F00F40D0
:1017440081B0CDF800E09CE0BBE0012905D14FF465
:1017540080715E48FFF748FD04E04FF480715C48F7
:10176400FFF718FDADE0012905D14FF4007157488A
:10177400FFF73AFD04E04FF400715548FFF70AFD06
:101784009FE0012905D14FF400115248FFF72CFDC9
:1017940004E04FF400115048FFF7FCFC91E00129EC
:1017A40005D14FF400014B48FFF71EFD04E04FF450
:1017B40000014948FFF7EEFC83E0012905D14FF40D
:1017C40080014448FFF710FD04E04FF480014248D3
:1017D400FFF7E0FC75E0012905D14FF020013F48F7
:1017E400FFF702FD04E04FF020013D48FFF7D2FC73
:1017F40067E0012905D14FF002013848FFF7F4FCF6
:1018040004E04FF002013648FFF7C4FC59E0012917
:1018140005D14FF480312F48FFF7E6FC04E04FF484
:1018240080312D48FFF7B6FC4BE0012905D14FF478
:1018340000312848FFF7D8FC04E04FF40031264873
:10184400FFF7A8FC3DE0012905D14FF4805125485C
:10185400FFF7CAFC04E04FF480512348FFF79AFCD9
:101864002FE0012905D14FF400611E48FFF7BCFCAD
:1018740004E04FF400611C48FFF78CFC21E00120D8
:1018840020E000283FF460AF01283FF45EAF022857
:101894003FF469AF03283FF474AF04283FF47FAFEB
:1018A40005283FF48AAF06283FF495AF0728A0D057
:1018B4000828ACD00928B8D00A28C4D00B28D0D026
:1018C400DDE70020DDF800E001B0704790F00F4044
:1018D40080F00F4050F00F4040F00F4010F10F40E7
:0C18E40000F10F4010F00F4000F00F402A
:1015740081B0CDF800E09CE0BBE0012905D14FF437
:1015840080515E48FFF730FE04E04FF480515C4820
:10159400FFF700FEADE0012905D14FF40051574893
:1015A400FFF722FE04E04FF400515548FFF7F2FD27
:1015B4009FE0012905D14FF400115248FFF714FEB2
:1015C40004E04FF400115048FFF7E4FD91E00129D5
:1015D40005D14FF400014B48FFF706FE04E04FF439
:1015E40000014948FFF7D6FD83E0012905D14FF4F6
:1015F40080014448FFF7F8FD04E04FF480014248BD
:10160400FFF7C8FD75E0012905D14FF040013F48BF
:10161400FFF7EAFD04E04FF040013D48FFF7BAFD53
:1016240067E0012905D14FF004013848FFF7DCFDDC
:1016340004E04FF004013648FFF7ACFD59E00129FE
:1016440005D14FF480312F48FFF7CEFD04E04FF46D
:1016540080312D48FFF79EFD4BE0012905D14FF461
:1016640000312848FFF7C0FD04E04FF4003126485C
:10167400FFF790FD3DE0012905D14FF48051254845
:10168400FFF7B2FD04E04FF480512348FFF782FDD9
:101694002FE0012905D14FF400611E48FFF7A4FD96
:1016A40004E04FF400611C48FFF774FD21E00120C1
:1016B40020E000283FF460AF01283FF45EAF022829
:1016C4003FF469AF03283FF474AF04283FF47FAFBD
:1016D40005283FF48AAF06283FF495AF0728A0D029
:1016E4000828ACD00928B8D00A28C4D00B28D0D0F8
:1016F400DDE70020DDF800E001B0704790F00F4016
:1017040080F00F4050F00F4040F00F4010F10F40B8
:0C17140000F10F4010F00F4000F00F40FB
:101FD00081B0CDF800E011E00846FFF7A1FB16E064
:101FE0000846FFF77FFE12E00846FFF78DFE0EE081
:101FF0000846FFF765FE0AE0012008E00028EBD064
:102000000128EDD00228EFD00328F1D0F4E7DDF865
:0620100000E001B0704782
:1017200081B0CDF800E0011D0A6801680846114645
:10173000034AFFF767FD0020DDF800E001B07047C5
:041740000C2C00006D
:1012040081B0CDF800E003460C4615460648FFF7CA
:1012140051FE224619462B460348FFF797FEDDF898
:0C12240000E001B0704700BF00C00240B5
:100EB80081B00F49884206D10E4A0F490A600F4A8D
:100EC8000F490A6012E00F49884206D10E4A0A49C2
:100ED8000A600E4A0A490A6008E00D49884205D1AD
:100EE8000C4A05490A600C4A05490A6001B0704776
:100EF80000C002402D1100002800FF1FF10A000069
:100F08002C00FF1F00D00240F1100000C5090000AE
:0C0F180000C00A40B5100000690B00008A
:100F500084B0CDF800E00391014610460190029163
:100F60001846FFF73DFE0299019800F0100424098D
:100F70002346019002910846FFF758FE029902911C
:100F80000846FFF779FB0299019800F000450C68CC
:100F90002C430C6000F080450C682C430C600C68FE
:100FA00044F440540C600D686FF4804405EA040476
:100FB0000C6001F20C059C002E1900F00F0534683E
:100FC0002C43346001F20C059C002E1900F0806562
:100FD00034682C43346001F20C059C002E1900F09B
:100FE000007534682C43346001F20C059C002E1906
:100FF00000F0807534682C43346001F20C059C00CD
:101000002E1935686FF0F04405EA0404346001F2EB
:101010000C059C002E1900F00F04E50634682C43E3
:1010200034600191039A0846D9B2FFF761FB019938
:101030000D686FF0010405EA04040C60DDF800E0BF
:0410400004B0704741
:100BE00081B0CDF800E040F2000C83464FEA8C0162
:100BF0000BEB01010968B1F1FF3F12D00BF1340199
:100C00004FEA8C03C91809680A460BEB030109680F
:100C100008461146FFF78AFC0CF1010C1FFA8CFC08
:0A0C2000E4E7DDF800E001B07047E2
:10052C0082B0CDF800E080464FEA581202F0070284
:10053C00914608F01F04A24693010D4AD3184FF0C0
:10054C000102A240019218460A46019900F0E2FB12
:10055C004FEA0933074AD3184FEA8A029C1808F469
:10056C00E06322681A432260DDF800E002B07047B5
:08057C0000F00F400090044064
:100C2C0081B00B49884203D1012252B209490A60B2
:100C3C000949884203D1012252B208490A60084985
:100C4C00884203D1012252B206490A6001B07047B2
:100C5C0000C00240B007904200D00240B40790425E
:080C6C0000C00A40300690426E
:1006780081B002686FF4804102EA010101600168FB
:1006880041F00101016000F22C021149116000F2F1
:1006980008020021116000F20C024FF0F0411160D5
:1006A80000F210024FF0F041116000F23002002118
:1006B800116000F2340200211160016841F44061C8
:1006C80001600268034942EA0101016001B0704714
:0806D80000000A9A0140000035
:1006F00091B0CDF800E00F9010468DF840100E90AC
:1007000001AB1846FFF73EFF4FF0FF330D93002378
:1007100006930023089301230A9300230B930023DD
:100720000593059B042B41D20D9B002B3ED000234B
:100730000793079B102B35D20D9B002B32D0012342
:100740000993099B032B29D20D9B3BB3099C029B68
:1007500003FB04F6059B9C00314B1B191D68079B8E
:100760009C00304B1B191B686B43B6FBF3F420460F
:100770000E9BA3420ED30E9B1C1A0C940D9BA342FE
:1007800008D90C9B0D93059B0693079B08930B9030
:10079000099B0A93099B5B1C0993D2E7079B5B1C8F
:1007A0000793C6E7059B5B1C0593BAE70F9B03F213
:1007B0000C049DF840309B00E5182C681A4B04EAA5
:1007C00003032B600F9B03F20C049DF840309B0049
:1007D000E5180A9B5B1EDC072B6823432B600F9BED
:1007E00003F20C049DF840309B00E518069B1B04A7
:1007F00003F440342B6823432B600F9B03F20C045B
:100800009DF840309B00E518089B03F00F042B680F
:1008100023432B600B98DDF800E011B0704700BF58
:0C082000982D0000442D0000F0FFFC7F2C
:1005840081B0CDF800E00446FFF794FF40F2E83173
:1005940000FB01F3194909680A0F1849096801F0B9
:1005A4007061090EC8B21549096801F47001090D9A
:1005B400CDB21249096801F47021090CCEB2D1B24E
:1005C400491C09B259430F462360221D411C09B23C
:1005D400B7FBF1F1116004F20802691C09B2B7FB20
:1005E400F1F1116004F20C02711C09B2B7FBF1F1D4
:1005F4001160DDF800E001B0704700BF44800440A2
:0C04B80001480068704700BF2400FF1FCF
:101CE40081B0CDF800E0011D0A680168084611467C
:101CF400034AFFF79BFA0020DDF800E001B07047CB
:041D0400782C000037
:1012300081B0CDF800E003460C4615460648FFF79E
:101240003BFE224619462B460348FFF781FEDDF898
:0C12500000E001B0704700BF00D0024079
:101D080081B0CDF800E0011D0A6801680846114657
:101D1800034AFFF79FFA0020DDF800E001B07047A2
:041D2800A02B0000EC
:10125C0081B0CDF800E003460C4615460648FFF772
:10126C0025FE224619462B460348FFF76BFEDDF898
:0C127C0000E001B0704700BF00C00A4055
:101CC00081B0CDF800E0011D0A68016808461146A0
:101CD000034AFFF7C3FA0020DDF800E001B07047C7
:041CE000A02B000035
:101F880081B0CDF800E011E00846FFF771FE16E0D9
:101F98000846FFF77FFE12E00846FFF7D5FA0EE085
:101FA8000846FFF79BFA0AE0012008E00028EBD07A
:101FB8000128EDD00228EFD00328F1D0F4E7DDF8AE
:061FC80000E001B07047CB
:101C780081B0CDF800E0FFF797FA044A04490A60FA
:101C88000020DDF800E001B0704700BF99100000A7
:041C98001400FF1F16
:1011B00081B0CDF800E003460A48FFF7D7FD0A4AA0
:1011C00040F2000104B402B440F20002194640F2B9
:1011D00000030448FFF774FD02B0DDF800E001B041
:0C11E000704700BF00C00640C82A000095
:100D6C0081B0304988420CD12F4A30490A60304A50
:100D7C0030490A60304A31490A60314A31490A60C7
:100D8C004EE0314988420CD1304A28490A60304A39
:100D9C0028490A602F4A29490A602F4A29490A60C2
:100DAC003EE02E4988420CD12D4A20490A602D4A3A
:100DBC0020490A602C4A21490A602C4A21490A60C0
:100DCC002EE02B4988420CD12A4A18490A602A4A3B
:100DDC0018490A60294A19490A60294A19490A60BE
:100DEC001EE0284988420CD1274A10490A60274A3C
:100DFC0010490A60264A11490A60264A11490A60BC
:100E0C000EE0254988420BD1244A08490A60244A3D
:100E1C0008490A60234A09490A60234A09490A60B9
:100E2C0001B0704700A00640D51000003000FF1F35
:100E3C00B12100002000FF1F812100001C00FF1FBA
:100E4C00711F00003400FF1F00B00640111100009C
:100E5C00211E0000691E0000991E000000C0064003
:100E6C0099100000811E0000B11E0000391E000008
:100E7C0000D0064045100000291F0000411F000053
:100E8C00591F000000A00E407D100000111F000033
:100E9C00C91E0000E11E000000B00E4061100000F1
:0C0EAC00F91E0000511E000099210000FA
:100CC00085B0CDF800E001900291ADF80C20ADF8B0
:100CD0001030BDF81440ADF814400698FFF780FFBF
:100CE0000198FFF7A3FD02990198FFF7F7FDBDF802
:100CF0000C100198FFF748FEBDF810100198FFF79F
:100D000027FEBDF814100198FFF7B0FC0198FFF71B
:100D1000A5FC0198FFF7E4FCDDF800E005B07047A2
:10082C0081B01849884204D1012252B216490A609B
:10083C0026E01649884204D1012252B214490A60BA
:10084C001EE01449884204D1012252B212490A60B6
:10085C0016E01249884204D1012252B210490A60B2
:10086C000EE01049884204D1012252B20E490A60AE
:10087C0006E00E49884203D1012252B20C490A60AB
:10088C0001B0704700A00640A806904200B0064098
:10089C00AC06904200C00640B006904200D0064024
:1008AC00B406904200A00E402805904200B00E40C5
:0408BC002C05904235
:1008DC0085B0CDF800E08046894601AA1046FFF7A6
:1008EC004BFE164A904503D0154A904500D001E0C6
:1008FC00019800E002984FEA0912B0FBF2F291B2B3
:10090C0092B2130A9BB298F800201A4388F8002080
:10091C0008F10103CAB21A7043014FEA0912B3FB82
:10092C00F2F34A0192B29A1AD0B208F10A031A7879
:10093C0002431A70DDF800E005B0704700A00640D5
:04094C0000B00640B1
:1009880081B0841C23784FF6EF7212B203EA020298
:100998002270841C0B0122781A43227001B0704720
:1009500081B001F0020262B1841C01F0020322782E
:100960001A432270841C01F0010322781A4322707A
:1009700007E0841C23784FF6FD7212B203EA0202EC
:06098000227001B0704777
:0C066C0081B002780A43027001B07047B0
:10065C0081B0C21C117841F00401117001B07047D7
:1006E00081B0C21C117841F00801117001B070474F
:101C9C0081B0CDF800E0FFF7F1FA044A04490A607C
:101CAC000020DDF800E001B0704700BF45100000D7
:041CBC001400FF1FF2
:1012880081B0CDF800E003460A48FFF76BFD0A4A33
:1012980040F2000104B402B440F20002194640F2E0
:1012A80000030448FFF708FD02B0DDF800E001B0D4
:0C12B800704700BF00D00640342B00003F
:1015500081B0CDF800E0FFF7B5FE044A04490A6007
:101560000020DDF800E001B0704700BFD51000009A
:041570001400FF1F45
:1012C40081B0CDF800E003460A48FFF74DFD0A4A15
:1012D40040F2000104B402B440F20002194640F2A4
:1012E40000030448FFF7EAFC02B0DDF800E001B0B7
:0C12F400704700BF00A006405C2A00000C
:1014E40081B0CDF800E0FFF7EBFE044A04490A603E
:1014F4000020DDF800E001B0704700BFD510000007
:041504001400FF1FB1
:1024140081B0CDF800E011491148FFF733FE1148AF
:102424000221FFF7F7FD40F6FE07C0F23D0700BFAB
:1024340000BF7F1EFDD100BF00BF00BF0A4800EEF1
:10244400100AFFF767FE09490860FFF74FFE0021F5
:1024540006480160DDF800E001B07047B02D0000CF
:10246400E42C00000000FF1F00409C451800FF1FE3
:1020880081B0CDF800E003460846FFF7F7F9184697
:10209800FFF792F90120074C2468A0470120064C5D
:1020A8002468A0470120054C2468A047DDF800E01B
:1020B80001B070474000FF1F4400FF1F4800FF1F8A
:0C15080001490860704700BF0808FE435E
:0C14D80001490860704700BF2C08FE436B
:0C14C00001490860704700BF1010FE4397
:0C14CC0001490860704700BF1410FE4387
:0C15380001490860704700BF1C10FE4312
:0C15440001490860704700BF1810FE430A
:0C152C0001490860704700BF2800FE4322
:0C15140001490860704700BF3408FE4326
:0C15200001490860704700BF0818FE4336
:0C1D2C0001490860704700BF0C18FE431E
:0C1DE40001490860704700BF2018FE4352
:0C1DF00001490860704700BF2418FE4342
:0C1DFC0001490860704700BF0C08FE435E
:0C1DC00001490860704700BF4C08FE435A
:0C1DCC0001490860704700BF1018FE437A
:0C1DD80001490860704700BF1418FE436A
:0C1E080001490860704700BF1C18FE4331
:0C1E140001490860704700BF1818FE4329
:0C1D5C0001490860704700BF0810FE43FA
:0C1D680001490860704700BF2008FE43DE
:0C1D740001490860704700BF4010FE43AA
:0C1D380001490860704700BF4410FE43E2
:0C1D440001490860704700BF2810FE43F2
:0C1D500001490860704700BF2C10FE43E2
:021DA400704786
:0C1DA80001490860704700BF2010FE4396
:0C1DB40001490860704700BF2410FE4386
:0C1D800001490860704700BF5408FE4392
:0C1D8C0001490860704700BF5C08FE437E
:0C1D980001490860704700BF5808FE4376
:0C14B40001490860704700BF1420FE438F
:0C137C0001490860704700BF0420FE43D8
:0C13480001490860704700BF4008FE43E8
:0C13540001490860704700BF4408FE43D8
:0C13600001490860704700BF3000FE43E8
:0C13700001490860704700BF2C00FE43DC
:02136C007047C8
:0C13180001490860704700BF3010FE4320
:0C130C0001490860704700BF3410FE4328
:0C13000001490860704700BF5408FE431C
:0C13240001490860704700BF5C08FE43F0
:0C13300001490860704700BF5808FE43E8
:0C133C0001490860704700BF1820FE4304
:0C14780001490860704700BF0820FE43D7
:0C146C0001490860704700BF4008FE43C3
:0C14600001490860704700BF4408FE43CB
:0C14A80001490860704700BF3000FE439F
:0C149C0001490860704700BF2C00FE43AF
:10148400026803490A60011D0A6802490A6070473C
:081494003800FF1F3C00FF1FA0
:1013C00000F208010A6806490A60011D0A68054919
:1013D0000A6000F218010A6803490A60704700BFFA
:0C13E0004000FF1F4400FF1F4800FF1FDB
:1020180083B0CDF800E0024610460D228DF8082066
:102028000A228DF809201FE0FFF7B6F923E00278AD
:102038002AB10190FFF7B0F90198401CF7E71AE0C0
:1020480002782AB10190FFF7A7F90198401CF7E739
:1020580002AA1046FFF7A0F90DF109021046FFF792
:102068009BF908E0062007E00029DDD00129DED031
:102078000229E5D0F6E70020DDF800E003B070475C
:1013A00081B0CDF800E00178CCB2A0B2034C246843
:1013B000A0470020DDF800E001B070471400FF1FD7
:10112C0081B0CDF800E082B24FF080610348FFF748
:10113C00F3FEDDF800E001B0704700BF00C00240D4
:100F240081B000F22C044FF00043236000F234043B
:100F340093B241EA0303236000F22C031C68C4F358
:0A0F4400C07303B9F8E701B070476D
:1010F00081B0CDF800E082B24FF080610348FFF785
:1011000011FFDDF800E001B0704700BF00D00240E1
:1010B40081B0CDF800E082B24FF080610348FFF7C1
:1010C4002FFFDDF800E001B0704700BF00C00A4008
:1010D40081B0CDF800E081B20348FFF729FEDDF8C6
:0C10E40000E001B0704700BF00A0064013
:100D340081B0ADF800100146BDF800000A1D13781B
:100D4400C3F3C01202B9F9E7CA1D107001B07047AD
:1011100081B0CDF800E081B20348FFF70BFEDDF8A7
:0C11200000E001B0704700BF00B00640C6
:1010980081B0CDF800E081B20348FFF747FEDDF8E4
:0C10A80000E001B0704700BF00C006402F
:1010440081B0CDF800E081B20348FFF771FEDDF80E
:0C10540000E001B0704700BF00D0064073
:10107C0081B0CDF800E081B20348FFF755FEDDF8F2
:0C108C0000E001B0704700BF00A00E4063
:1010600081B0CDF800E081B20348FFF763FEDDF800
:0C10700000E001B0704700BF00B00E406F
:10211800F0EE400A084901EE101A4FF09B4101EE1B
:10212800901A81EE810A20EE800ABCEE400A10EE79
:0C213800101A0846704700BF20BCBE4BC8
:1020F00081B0CDF800E0FFF779F942F228020549F6
:102100000A8042F2280188B2FFF720F8DDF800E0EB
:0821100001B070474C00FF1FF5
:1013EC0082B0CDF800E047F6FF7100EA0101ADF8DC
:1013FC000410820B47F6FF7102EA0101ADF80610EA
:10140C000020FFF79DFEBDF8041041F4004188B2A6
:10141C00FFF796FE41F20000FFF792FEBDF80610B2
:10142C0041F4804188B2FFF78BFEDDF800E002B09A
:02143C007047F7
:10114C0083B0CDF800E0ADF8040000200D4C24680D
:10115C00A047BDF80400FFF7F7FD02AB010AC9B2C6
:10116C0019705A1CC1B21170022207491846FFF7B8
:10117C007BFD0120034C2468A047DDF800E003B0A0
:0C118C00704700BF4400FF1F4E00FF1F13
:100D540049F63E47C0F2000700BF00BF7F1EFDD129
:080D640000BF00BF00BF704793
:100C740084B0CDF800E0ADF80C2001900291BDF8ED
:100C84000C40BDF80C305B1EADF80C307CB1019B00
:100C94001B78DCB2A0B2084C2468A047029B1870F1
:100CA400029B5B1C0293019B5B1C0193E7E7DDF84D
:0C0CB40000E004B0704700BF3C00FF1FD0
:1008C00081B0CDF800E0C1B20348FFF70BFEDDF8C0
:0C08D00000E001B0704700BF00B0034022
:1004E40082B0CDF800E006468DF8041000228DF8A5
:1004F400062000228DF8052001AA00213046FFF7CE
:10050400ADFF00213046FFF7DBFF00213046FFF747
:10051400C7FF87B200213046FFF7AEFFB8B2DDF85F
:0605240000E002B0704788
:1004600081B0CDF800E00AB9012002E0FFF7DAFF21
:0A0470000020DDF800E001B0704745
:1004240081B040F20004531C1B781BB144F040041B
:10043400A4B2FFE7931C1B781BB144F02005ADB2B6
:1004440000E0A5B2137803F01F03DBB245EA03040E
:0C045400A4B28B00C3181C6001B07047FC
:1004C40081B0ADF800100146BDF8000082008A1822
:0E04D4001368C3F3C01202B9F8E701B0704715
:1004A40081B0CDF800E0FFF7B1FF00B2DDF800E065
:0404B40001B07047DC
:1004100081B000F210038A009A18126890B201B0FD
:02042000704723
:10047C0082B0CDF800E01F228DF8042000228DF808
:10048C00052000228DF8062001AAFFF7E3FFDDF816
:06049C0000E002B0704711
:1009A80081B0CDF800E0C1B20348FFF797FDDDF84C
:0C09B80000E001B0704700BF00B00B4031
:100AF00081B0CDF800E01749096841F001021549BD
:100B00000A6014490A686FF4406102EA010141F485
:100B1000406210490A60104A10490A6010490A6888
:100B200010490A400E490A600A490A686FF001013B
:100B30000A4008490A6082B24FF08061054800F01F
:100B4000F1F90448FFF75EFD80B2DDF800E001B086
:100B5000704700BF00C0024000000A9A2CC002404B
:080B600008C00240FFFF000085
:1006040081B000F22C010A68C2F3404101B9F8E755
:1006140000F2380109688BB200F22C024FF4003169
:08062400116098B201B07047AB
:1009C40081B0CDF800E01749096841F001021549EA
:1009D4000A6014490A686FF4406102EA010141F4B3
:1009E400406210490A60104A10490A6010490A68B6
:1009F40010490A400E490A600A490A686FF0010169
:100A04000A4008490A6082B24FF08061054800F04C
:100A140087FA0448FFF7F4FD80B2DDF800E001B086
:100A2400704700BF00D0024000000A9A2CD0024058
:080A340008D00240FFFF0000A2
:100B680081B0CDF800E01749096841F00102154944
:100B78000A6014490A686FF4406102EA010141F40D
:100B8800406210490A60104A10490A6010490A6810
:100B980010490A400E490A600A490A686FF00101C3
:100BA8000A4008490A6082B24FF08061054800F0A7
:100BB800B5F90448FFF722FD80B2DDF800E001B086
:100BC800704700BF00C00A4000000A9A2CC00A40C3
:080BD80008C00A40FFFF000005
:1022900082B0CDF800E0454C2468A04740B1444CE2
:1022A0002468A0478DF8040001A80021FFF7B4FEC0
:1022B0009DF80400002840F271804EE0FFF742FFD5
:1022C00000208DF8040069E0FFF7C4FF00208DF8BE
:1022D000040063E037490868401C08608003FFF78A
:1022E000A7FF00208DF8040058E032490868401E1E
:1022F00008608003FFF79CFF00208DF804004DE08C
:102300002C490868401C08608003FFF7DDFE0020B0
:102310008DF8040042E027490868401E08608003E9
:10232000FFF7D2FE00208DF8040037E0214908684D
:10233000401C08608003FFF7DBFE00208DF80400DE
:102340002CE01C490868401E08608003FFF7D0FE9F
:1023500000208DF8040021E020E09DF804002B28E7
:10236000ACD09DF804002D28AED09DF80400532871
:10237000B0D09DF804007328B7D09DF8040054280D
:10238000BED09DF804007428C5D09DF804005128E3
:10239000CCD09DF804007128D3D0DDE700208DF863
:1023A0000400DDF800E002B0704700BF1C00FF1F12
:0823B0002000FF1F1800FF1FB1
:1021B00081B0CDF800E00348FFF7E6F8DDF800E075
:0821C00001B0704700A00640C9
:1013880081B0011D0A78C2F3401101B9F9E7C11D06
:081398000978C8B201B07047EA
:1021800081B0CDF800E00348FFF762F9DDF800E028
:0821900001B0704700A00640F9
:0E14500081B0011D0978C1F3401001B0704752
:101F700081B0CDF800E00348FFF762FADDF800E039
:081F800001B0704700A006400B
:0E14400081B0011D0978C1F3801001B0704722
:101E200081B0CDF800E00348FFF7AEFADDF800E03E
:081E300001B0704700B006404C
:101E680081B0CDF800E00348FFF7EEFADDF800E0B6
:081E780001B0704700B0064004
:101E980081B0CDF800E00348FFF7CEFADDF800E0A6
:081EA80001B0704700B00640D4
:101E800081B0CDF800E00348FFF77EFADDF800E00E
:081E900001B0704700C00640DC
:101EB00081B0CDF800E00348FFF7CAFADDF800E092
:081EC00001B0704700C00640AC
:101E380081B0CDF800E00348FFF7FEFADDF800E0D6
:081E480001B0704700C0064024
:101F280081B0CDF800E00348FFF72AFADDF800E0B9
:081F380001B0704700D0064023
:101F400081B0CDF800E00348FFF782FADDF800E049
:081F500001B0704700D006400B
:101F580081B0CDF800E00348FFF76EFADDF800E045
:081F680001B0704700D00640F3
:101F100081B0CDF800E00348FFF736FADDF800E0C5
:081F200001B0704700A00E4063
:101EC80081B0CDF800E00348FFF7BEFADDF800E086
:081ED80001B0704700A00E40AC
:101EE00081B0CDF800E00348FFF7AAFADDF800E082
:081EF00001B0704700A00E4094
:101EF80081B0CDF800E00348FFF742FADDF800E0D2
:081F080001B0704700B00E406B
:101E500081B0CDF800E00348FFF7FAFADDF800E0C2
:081E600001B0704700B00E4014
:1021980081B0CDF800E00348FFF74EF9DDF800E024
:0821A80001B0704700B00E40C9
:1021440082B0CDF800E001A90720087000200A4CF5
:102154002468A047FEF7FCFD0DF1060101A8012249
:10216400FEF786FDFEF7F4FD0120034C2468A0472A
:0C217400DDF800E002B070474000FF1FE3
:1022540082B0CDF800E001A91F20087000200A4CCC
:102264002468A047FEF774FD0DF1060101A80122C0
:10227400FEF7FEFCFEF76CFD0120034C2468A0472A
:0C228400DDF800E002B070474000FF1FD2
:1022300081B0CDF800E0FFF7D9F842F20010FEF7C8
:1022400085FF42F20000FEF781FFDDF800E001B0FB
:022250007047D5
:1020C80081B0CDF800E0FFF78DF942F20202054930
:1020D8000A8042F2020188B2FFF734F8DDF800E026
:0820E80001B070474C00FF1F1E
:1025300090B072B6974801909748029097480390E0
:1025400097480490974805909748069097480790B9
:10255000974808909748099097480A9097480B9099
:1025600097480C90974998480D9098480E900D9870
:1025700000F007000F9001F0010050B94CF220501C
:10258000934908804DF62810088040F2D2119148F6
:1025900001809148007800F0010050B18F48007828
:1025A00000F0080020B18D49087840F0080008705C
:1025B00021E08B48006840F000518948016089485B
:1025C000006800F48070B0B9864801686FF47050FC
:1025D00001EA000040F440718248016081480068CF
:1025E00040F480717F4801607E4801686FF400709C
:1025F00001407C480160AA217B4801700D9800F0E1
:10260000100060B9794801786FF0600001407748A8
:10261000017077480078012800D0FAE71CE00D9897
:1026200000F01000C0B10E997248814208D96021B3
:102630006E4801706E480078802800D0FAE70BE001
:102640006A4801786FF0600001406848017068488E
:102650000078012800D0FAE70499674801606748CC
:1026600001686FF440200140029800F440200143CB
:1026700062480160624801686FF44030014003988D
:1026800000F4403001435E4801600F9830B10F986C
:10269000012803D00F98022800D061E0019800F0D3
:1026A000800050B9089800F0400028B10B9800F065
:1026B0000300002800D100E015E05248006840F413
:1026C00000715048016050480168504801404E4830
:1026D0000160069800F0040028B14D4801684B489D
:1026E00001404B4801600A994A48017005994A48DF
:1026F0000170059800F0040038B14848007800F0F7
:102700001000002800D1F8E705E04448007800F008
:10271000100000B1F9E74248007800F0BF01C9B2EB
:10272000069800F0FD0001433D480170079800F055
:10273000E0013C48007800F01F0001433948017077
:102740000199394801700B99384801700F98022897
:1027500005D13348007840F0020131480170B8E0FB
:10276000019800F0800020B90B9800F0030000B140
:1027700065E02448006840F4007122480160224866
:1027800001682248014020480160069800F00400DA
:1027900000F04EB80000000000000C000000010036
:1027A00000001401220000002400000000000000CE
:1027B00002000000460000000000000000000000D1
:1027C000000000000000000007000000C0D401006D
:1027D0000E2005400020054000F0074002D00740D1
:1027E0003C80044010D0034000E0074001E0074077
:1027F00003E007408038010044800440007004403A
:10280000048004403880044048900440FFF8FFFEF4
:102810004C900440084006400040064006400640F8
:102820000140064003400640005006400C40064070
:1028300028B17A4801687A480140784801600A99CD
:10284000784801707848007800F0BF01C9B2069856
:1028500000F0FD0001437448017001997348017054
:102860000B99734801700F98072805D1059840F01F
:1028700080017048017002E005996E480170069869
:1028800000F0040048B10B9800F0030028B96A4832
:10289000007800F0020000B9F9E7059800F00400A4
:1028A00038B16548007800F01000002800D1F8E742
:1028B00005E06148007800F0100000B1F9E70798E2
:1028C00000F0E0015D48007800F01F0001435B4824
:1028D0000170089800F0BF0159480170099800F094
:1028E000BF0158480170089800F0400028B15448D2
:1028F000007840F04001524801700F98052806D139
:102900004948007840F00201474801701BE00F98E9
:10291000062803D00F98072800D014E04948007813
:1029200040F04001474801704348007800F0400003
:1029300000B9F9E70F98072805D13E48007800F064
:102940003F013C4801700F9818B10F98032800D040
:102950002CE03948007800F00C0000B1F9E73A4863
:10296000006840F00101384801604FF0000137482D
:1029700001604FF08001364801604FF00501354895
:1029800001604FF00101324801603148006800F0F9
:10299000800000B9F9E700212D4801602A4801684C
:1029A0006FF001000140284801602AE00F980128DB
:1029B00003D00F98022800D007E01F48007800F0ED
:1029C0000C00042800D0F8E71BE00F98042806D07C
:1029D0000F98062803D00F98052800D007E0164866
:1029E000007800F00C00082800D0F8E709E00F9804
:1029F000072806D11048007800F00C000C2800D001
:102A0000F8E7154801686FF00F0001400C9800F0DE
:102A10000F0001431048016010B070474C90044013
:102A2000FFF8FFFE08400640014006400050064007
:102A30000C40064000400640064006400340064069
:102A40000440064005400640388004400800044029
:0C2A5000000004400400044048800440E2
:1024F80081B002490248016001B07047C0D40100B0
:042508002400FF1F8D
:0824C40081B0FEE701B0704792
:1024CC0081B072B60849086840F47000086000BF1B
:1024DC0000BF00BF00BFF1EE100A40F44000E1EE77
:0C24EC00100A62B601B0704788ED00E0F5
:102DC00000B5DFF814B0DFF814A0DFF814C0FFF787
:102DD00051FB00BD704700BF0000FF1F1300FF1F25
:042DE000842D00003E
:102E400000B5DFF810B0DFF810A0FFF71DFB00BDE4
:0C2E5000704700BF0000FF1F5400FF1F70
:100400000000000000000000FFFFFFFF02FDFFFFF3
:102A5C003103000030030000FFFFFFFF0000000007
:102A6C00000000000000000000000000000000005A
:102A7C00000000000000000000000000000000004A
:102A8C00000000000000080000000800FFFFFFFF2E
:102A9C00000000000000000000000000000000002A
:102AAC00000000000000000000000000000000001A
:0C2ABC000000000000000000000000000E
:102AC8006303000062030000FFFFFFFF0000000037
:102AD80000000000000000000000000000000000EE
:102AE80000000000000000000000000000000000DE
:102AF800000000000000080000000800FFFFFFFFC2
:102B080000000000000000000000000000000000BD
:102B180000000000000000000000000000000000AD
:0C2B2800000000000000000000000000A1
:102B34005103000050030000FFFFFFFF00000000EE
:102B44000000000000000000000000000000000081
:102B54000000000000000000000000000000000071
:102B6400000000000000080000000800FFFFFFFF55
:102B74000000000000000000000000000000000051
:102B84000000000000000000000000000000000041
:0C2B940000000000000000000000000035
:102BA000350200003702000036020000FFFFFFFF81
:102BB0000000000000000000000000000000000015
:102BC0000000000000000000000000000000000005
:102BD00000000000000008000000080000000800DD
:102BE000FFFFFFFF000000000000000000000000E9
:102BF00000000000000000000000000000000000D5
:0C2C0000000000000000000000000000C8
:102C0C00450200004702000046020000FFFFFFFFE4
:102C1C0000000000000000000000000000000000A8
:102C2C000000000000000000000000000000000098
:102C3C000000000000000800000008000000080070
:102C4C00FFFFFFFF0000000000000000000000007C
:102C5C000000000000000000000000000000000068
:0C2C6C000000000000000000000000005C
:102C7800650700006707000066070000FFFFFFFF09
:102C8800000000000000000000000000000000003C
:102C9800000000000000000000000000000000002C
:102CA8000000000000000800000008000000080004
:102CB800FFFFFFFF00000000000000000000000010
:102CC80000000000000000000000000000000000FC
:0C2CD800000000000000000000000000F0
:102CE40009150000D9140000C1140000CD1400001F
:102CF40039150000451500002D15000015150000BC
:102D0400211500002D1D0000E51D0000F11D00002F
:102D1400FFFFFFFFFFFFFFFFFFFFFFFFFFFFFFFFBF
:102D2400FFFFFFFFFFFFFFFFFFFFFFFFFFFFFFFFAF
:102D3400FFFFFFFFFFFFFFFFFFFFFFFFFFFFFFFF9F
:102D4400020000000400000006000000080000006B
:102D5400100000002000000040000000800000007F
:102D64000001000000020000000400000008000050
:102D7400001000000020000000400000008000005F
:102D840053797374656D20696E697469616C697ACD
:032D940065640073
:102D9800020000000300000005000000070000001A
:042DA80020BCBE4B42
:042DAC000000804D56
:082DB0002D110000F10A0000E2
:082DB80040420F0007000084F7
:00000001FF
